{
  "contractName": "AthToken",
  "abi": [
    {
      "constant": true,
      "inputs": [],
      "name": "name",
      "outputs": [
        {
          "name": "",
          "type": "string"
        }
      ],
      "payable": false,
      "stateMutability": "view",
      "type": "function"
    },
    {
      "inputs": [
        {
          "name": "",
          "type": "address"
        }
      ],
      "payable": false,
      "stateMutability": "view",
      "type": "function",
      "constant": true,
      "name": "balanceOf",
      "outputs": [
        {
          "name": "",
          "type": "uint256"
        }
      ]
    },
    {
      "constant": true,
      "inputs": [],
      "name": "tokenSupply",
      "outputs": [
        {
          "name": "",
          "type": "uint256"
        }
      ],
      "payable": false,
      "stateMutability": "view",
      "type": "function"
    },
    {
      "constant": true,
      "inputs": [],
      "name": "symbol",
      "outputs": [
        {
          "name": "",
          "type": "string"
        }
      ],
      "payable": false,
      "stateMutability": "view",
      "type": "function"
    },
    {
      "inputs": [
        {
          "name": "_initial_supply",
          "type": "uint256"
        }
      ],
      "payable": false,
      "stateMutability": "nonpayable",
      "type": "constructor"
    },
    {
      "anonymous": false,
      "inputs": [
        {
          "indexed": true,
          "name": "_from",
          "type": "address"
        },
        {
          "indexed": true,
          "name": "_to",
          "type": "address"
        },
        {
          "indexed": false,
          "name": "_value",
          "type": "uint256"
        }
      ],
      "name": "Transfer",
      "type": "event"
    },
    {
      "constant": true,
      "inputs": [
        {
          "name": "_to",
          "type": "address"
        },
        {
          "name": "_value",
          "type": "uint256"
        }
      ],
      "name": "transfer",
      "outputs": [
        {
          "name": "success",
          "type": "bool"
        }
      ],
      "payable": false,
      "stateMutability": "view",
      "type": "function"
    }
  ],
  "bytecode": "0x60806040526040805190810160405280600881526020017f417468546f6b656e0000000000000000000000000000000000000000000000008152506001908051906020019061004f92919061012a565b506040805190810160405280600381526020017f41544800000000000000000000000000000000000000000000000000000000008152506002908051906020019061009b92919061012a565b503480156100a857600080fd5b506040516020806106b8833981018060405260208110156100c857600080fd5b810190808051906020019092919050505080600360003373ffffffffffffffffffffffffffffffffffffffff1673ffffffffffffffffffffffffffffffffffffffff1681526020019081526020016000208190555080600081905550506101cf565b828054600181600116156101000203166002900490600052602060002090601f016020900481019282601f1061016b57805160ff1916838001178555610199565b82800160010185558215610199579182015b8281111561019857825182559160200191906001019061017d565b5b5090506101a691906101aa565b5090565b6101cc91905b808211156101c85760008160009055506001016101b0565b5090565b90565b6104da806101de6000396000f3fe60806040526004361061006d576000357c0100000000000000000000000000000000000000000000000000000000900463ffffffff16806306fdde031461007257806370a08231146101025780637824407f1461016757806395d89b4114610192578063a9059cbb14610222575b600080fd5b34801561007e57600080fd5b50610087610295565b6040518080602001828103825283818151815260200191508051906020019080838360005b838110156100c75780820151818401526020810190506100ac565b50505050905090810190601f1680156100f45780820380516001836020036101000a031916815260200191505b509250505060405180910390f35b34801561010e57600080fd5b506101516004803603602081101561012557600080fd5b81019080803573ffffffffffffffffffffffffffffffffffffffff169060200190929190505050610333565b6040518082815260200191505060405180910390f35b34801561017357600080fd5b5061017c61034b565b6040518082815260200191505060405180910390f35b34801561019e57600080fd5b506101a7610351565b6040518080602001828103825283818151815260200191508051906020019080838360005b838110156101e75780820151818401526020810190506101cc565b50505050905090810190601f1680156102145780820380516001836020036101000a031916815260200191505b509250505060405180910390f35b34801561022e57600080fd5b5061027b6004803603604081101561024557600080fd5b81019080803573ffffffffffffffffffffffffffffffffffffffff169060200190929190803590602001909291905050506103ef565b604051808215151515815260200191505060405180910390f35b60018054600181600116156101000203166002900480601f01602080910402602001604051908101604052809291908181526020018280546001816001161561010002031660029004801561032b5780601f106103005761010080835404028352916020019161032b565b820191906000526020600020905b81548152906001019060200180831161030e57829003601f168201915b505050505081565b60036020528060005260406000206000915090505481565b60005481565b60028054600181600116156101000203166002900480601f0160208091040260200160405190810160405280929190818152602001828054600181600116156101000203166002900480156103e75780601f106103bc576101008083540402835291602001916103e7565b820191906000526020600020905b8154815290600101906020018083116103ca57829003601f168201915b505050505081565b600081600360003373ffffffffffffffffffffffffffffffffffffffff1673ffffffffffffffffffffffffffffffffffffffff16815260200190815260200160002054101515156104a8576040517f08c379a00000000000000000000000000000000000000000000000000000000081526004018080602001828103825260198152602001807f76616c7565207472616e7366657220697320696e76616c69640000000000000081525060200191505060405180910390fd5b9291505056fea165627a7a72305820a0ba7ee6298cd1e68b43495901e07d0a58d61830eaba0cb14597bac0aef408960029",
  "source": "pragma solidity ^0.5.0;\n\n\ncontract AthToken {\n\n  uint256 public tokenSupply;\n  string public name = \"AthToken\";\n  string public symbol = \"ATH\";\n\n  mapping(address => uint256) public balanceOf;\n\n  event Transfer(address indexed _from, address indexed _to, uint256 _value);\n\n  constructor(uint256 _initial_supply) public {\n    balanceOf[msg.sender] = _initial_supply;\n    tokenSupply = _initial_supply;\n  }\n\n  function transfer(address _to, uint _value) public view returns(bool success){\n    require(balanceOf[msg.sender] >= _value, 'value transfer is invalid');\n  }\n}\n",
  "sourcePath": "/Users/lafountain/Desktop/Athlete Tokens/contracts/AthToken.sol",
  "compiler": {
    "name": "solc",
    "version": "0.5.0+commit.1d4f565a.Emscripten.clang"
  },
  "schemaVersion": "3.0.9",
  "updatedAt": "2019-07-21T01:45:49.930Z",
  "devdoc": {
    "methods": {}
  },
  "userdoc": {
    "methods": {}
  }
}