{
  "contractName": "AthToken",
  "abi": [
    {
      "constant": true,
      "inputs": [],
      "name": "tokenSupply",
      "outputs": [
        {
          "name": "",
          "type": "uint256"
        }
      ],
      "payable": false,
      "stateMutability": "view",
      "type": "function"
    },
    {
      "inputs": [],
      "payable": false,
      "stateMutability": "nonpayable",
      "type": "constructor"
    }
  ],
  "bytecode": "0x608060405234801561001057600080fd5b50620f4240600081905550609e806100296000396000f3fe608060405260043610603f576000357c0100000000000000000000000000000000000000000000000000000000900463ffffffff1680637824407f146044575b600080fd5b348015604f57600080fd5b506056606c565b6040518082815260200191505060405180910390f35b6000548156fea165627a7a72305820428a3f192dfd75022bd9a2340c1814784d5b91386c774414b64c144fe09a45fb0029",
  "source": "pragma solidity ^0.5.0;\n\n\ncontract AthToken {\n\n  uint256 public tokenSupply;\n\n  constructor() public {\n    tokenSupply = 1000000;\n  }\n}\n",
  "sourcePath": "/Users/lafountain/Desktop/Athlete Tokens/contracts/AthToken.sol",
  "compiler": {
    "name": "solc",
    "version": "0.5.0+commit.1d4f565a.Emscripten.clang"
  },
  "schemaVersion": "3.0.9",
  "updatedAt": "2019-07-20T23:52:04.610Z",
  "devdoc": {
    "methods": {}
  },
  "userdoc": {
    "methods": {}
  }
}